{
  "abi": [
    {
      "type": "function",
      "name": "executeBackup",
      "inputs": [
        {
          "name": "owner",
          "type": "address",
          "internalType": "address"
        },
        {
          "name": "name",
          "type": "string",
          "internalType": "string"
        }
      ],
      "outputs": [],
      "stateMutability": "nonpayable"
    },
    {
      "type": "function",
      "name": "getBackup",
      "inputs": [
        {
          "name": "owner",
          "type": "address",
          "internalType": "address"
        },
        {
          "name": "name",
          "type": "string",
          "internalType": "string"
        }
      ],
      "outputs": [
        {
          "name": "",
          "type": "tuple",
          "internalType": "struct Wingman.Backup",
          "components": [
            {
              "name": "createdAt",
              "type": "uint48",
              "internalType": "uint48"
            },
            {
              "name": "unlockAt",
              "type": "uint48",
              "internalType": "uint48"
            },
            {
              "name": "beneficiaries",
              "type": "tuple[]",
              "internalType": "struct Wingman.Beneficiary[]",
              "components": [
                {
                  "name": "account",
                  "type": "address",
                  "internalType": "address"
                },
                {
                  "name": "percentage",
                  "type": "uint8",
                  "internalType": "uint8"
                },
                {
                  "name": "amount",
                  "type": "uint256",
                  "internalType": "uint256"
                }
              ]
            }
          ]
        }
      ],
      "stateMutability": "view"
    },
    {
      "type": "function",
      "name": "getBackups",
      "inputs": [
        {
          "name": "owner",
          "type": "address",
          "internalType": "address"
        }
      ],
      "outputs": [
        {
          "name": "",
          "type": "string[]",
          "internalType": "string[]"
        }
      ],
      "stateMutability": "view"
    },
    {
      "type": "function",
      "name": "isInitialized",
      "inputs": [
        {
          "name": "smartAccount",
          "type": "address",
          "internalType": "address"
        }
      ],
      "outputs": [
        {
          "name": "",
          "type": "bool",
          "internalType": "bool"
        }
      ],
      "stateMutability": "view"
    },
    {
      "type": "function",
      "name": "isModuleType",
      "inputs": [
        {
          "name": "typeID",
          "type": "uint256",
          "internalType": "uint256"
        }
      ],
      "outputs": [
        {
          "name": "",
          "type": "bool",
          "internalType": "bool"
        }
      ],
      "stateMutability": "pure"
    },
    {
      "type": "function",
      "name": "name",
      "inputs": [],
      "outputs": [
        {
          "name": "",
          "type": "string",
          "internalType": "string"
        }
      ],
      "stateMutability": "pure"
    },
    {
      "type": "function",
      "name": "onInstall",
      "inputs": [
        {
          "name": "data",
          "type": "bytes",
          "internalType": "bytes"
        }
      ],
      "outputs": [],
      "stateMutability": "nonpayable"
    },
    {
      "type": "function",
      "name": "onUninstall",
      "inputs": [
        {
          "name": "data",
          "type": "bytes",
          "internalType": "bytes"
        }
      ],
      "outputs": [],
      "stateMutability": "nonpayable"
    },
    {
      "type": "function",
      "name": "removeBackup",
      "inputs": [
        {
          "name": "name",
          "type": "string",
          "internalType": "string"
        }
      ],
      "outputs": [],
      "stateMutability": "nonpayable"
    },
    {
      "type": "function",
      "name": "updateBackup",
      "inputs": [
        {
          "name": "name",
          "type": "string",
          "internalType": "string"
        },
        {
          "name": "unlockAt",
          "type": "uint48",
          "internalType": "uint48"
        },
        {
          "name": "beneficiaries",
          "type": "tuple[]",
          "internalType": "struct Wingman.Beneficiary[]",
          "components": [
            {
              "name": "account",
              "type": "address",
              "internalType": "address"
            },
            {
              "name": "percentage",
              "type": "uint8",
              "internalType": "uint8"
            },
            {
              "name": "amount",
              "type": "uint256",
              "internalType": "uint256"
            }
          ]
        }
      ],
      "outputs": [],
      "stateMutability": "nonpayable"
    },
    {
      "type": "function",
      "name": "users",
      "inputs": [
        {
          "name": "",
          "type": "uint256",
          "internalType": "uint256"
        }
      ],
      "outputs": [
        {
          "name": "",
          "type": "address",
          "internalType": "address"
        }
      ],
      "stateMutability": "view"
    },
    {
      "type": "function",
      "name": "version",
      "inputs": [],
      "outputs": [
        {
          "name": "",
          "type": "string",
          "internalType": "string"
        }
      ],
      "stateMutability": "pure"
    },
    {
      "type": "event",
      "name": "BackupExecuted",
      "inputs": [
        {
          "name": "account",
          "type": "address",
          "indexed": true,
          "internalType": "address"
        },
        {
          "name": "name",
          "type": "string",
          "indexed": true,
          "internalType": "string"
        }
      ],
      "anonymous": false
    },
    {
      "type": "event",
      "name": "BackupUpdated",
      "inputs": [
        {
          "name": "account",
          "type": "address",
          "indexed": true,
          "internalType": "address"
        },
        {
          "name": "name",
          "type": "string",
          "indexed": true,
          "internalType": "string"
        },
        {
          "name": "backup",
          "type": "tuple",
          "indexed": false,
          "internalType": "struct Wingman.Backup",
          "components": [
            {
              "name": "createdAt",
              "type": "uint48",
              "internalType": "uint48"
            },
            {
              "name": "unlockAt",
              "type": "uint48",
              "internalType": "uint48"
            },
            {
              "name": "beneficiaries",
              "type": "tuple[]",
              "internalType": "struct Wingman.Beneficiary[]",
              "components": [
                {
                  "name": "account",
                  "type": "address",
                  "internalType": "address"
                },
                {
                  "name": "percentage",
                  "type": "uint8",
                  "internalType": "uint8"
                },
                {
                  "name": "amount",
                  "type": "uint256",
                  "internalType": "uint256"
                }
              ]
            }
          ]
        }
      ],
      "anonymous": false
    },
    {
      "type": "error",
      "name": "AlreadyInitialized",
      "inputs": [
        {
          "name": "smartAccount",
          "type": "address",
          "internalType": "address"
        }
      ]
    },
    {
      "type": "error",
      "name": "NotInitialized",
      "inputs": [
        {
          "name": "smartAccount",
          "type": "address",
          "internalType": "address"
        }
      ]
    }
  ],
  "bytecode": {
    "object": "0x6080604052348015600f57600080fd5b50611e848061001f6000396000f3fe608060405234801561001057600080fd5b50600436106100b45760003560e01c80637784d4b5116100715780637784d4b5146101c05780638a91b0e3146101d357806398f46cea146101e657806398fbc9c914610206578063d60b347f14610219578063ecd059611461023d57600080fd5b806306fdde03146100b95780631160fbf0146100ee578063365b98b21461010e57806339178b831461013957806354fd4d501461014e5780636d61fe701461016f575b600080fd5b6040805180820190915260078152662bb4b733b6b0b760c91b60208201525b6040516100e591906113c9565b60405180910390f35b6101016100fc366004611447565b610251565b6040516100e59190611499565b61012161011c366004611535565b610352565b6040516001600160a01b0390911681526020016100e5565b61014c610147366004611639565b61037c565b005b604080518082019091526005815264302e302e3160d81b60208201526100d8565b61014c61017d366004611675565b5050600080546001810182559080527f290decd9548b62a8d60345a988386fc84ba6bc95484008f6362f93160ef3e5630180546001600160a01b03191633179055565b61014c6101ce3660046116b6565b61040f565b61014c6101e1366004611675565b610826565b6101f96101f4366004611703565b61082f565b6040516100e5919061171e565b61014c6102143660046117a6565b61091e565b61022d610227366004611703565b50600090565b60405190151581526020016100e5565b61022d61024b366004611535565b60021490565b604080516060808201835260008083526020830152918101919091526001600160a01b03841660009081526002602052604090819020905161029690859085906118cf565b908152604080519182900360209081018320606084018352805465ffffffffffff8082168652600160301b90910416848301526001810180548451818502810185018652818152929486019360009084015b82821015610342576000848152602090819020604080516060810182526002860290920180546001600160a01b0381168452600160a01b900460ff16838501526001908101549183019190915290835290920191016102e8565b5050509152509095945050505050565b6000818154811061036257600080fd5b6000918252602090912001546001600160a01b0316905081565b3360009081526002602052604080822090516103999084906118df565b908152604051908190036020019020805490915065ffffffffffff166000036104015760405162461bcd60e51b8152602060048201526015602482015274109858dadd5c08191bd95cc81b9bdd08195e1a5cdd605a1b60448201526064015b60405180910390fd5b61040b3383610d6b565b5050565b6001600160a01b03821660009081526002602052604080822090516104359084906118df565b908152604051908190036020019020805490915065ffffffffffff166000036104985760405162461bcd60e51b8152602060048201526015602482015274109858dadd5c08191bd95cc81b9bdd08195e1a5cdd605a1b60448201526064016103f8565b8054600160301b900465ffffffffffff164210156105035760405162461bcd60e51b815260206004820152602260248201527f4261636b7570206973206e6f7420726561647920746f20626520657865637574604482015261195960f21b60648201526084016103f8565b60018101546001600160a01b0384163190600080826001600160401b0381111561052f5761052f61154e565b60405190808252806020026020018201604052801561057c57816020015b6040805160608082018352600080835260208301529181019190915281526020019060019003908161054d5790505b5090505b8282101561066b57600085600101838154811061059f5761059f6118fb565b6000918252602080832060408051606081018252600290940290910180546001600160a01b038116855260ff600160a01b909104169284019290925260019091015490820181905290925090036105f6575061066b565b60408101516106059086611927565b9450604051806060016040528082600001516001600160a01b031681526020018260400151815260200160405180602001604052806000815250815250828481518110610654576106546118fb565b602090810291909101015250600190910190610580565b8282101561074557600085600101838154811061068a5761068a6118fb565b60009182526020918290206040805160608082018352600290940290920180546001600160a01b03808216855260ff600160a01b9092048216858801908152600190930154858501528351958601909352835190921684525191945091928301916064916106fa918a911661193a565b6107049190611951565b81526020016040518060200160405280600081525081525082848151811061072e5761072e6118fb565b60209081029190910101525060019091019061066b565b866001600160a01b031663d691c96461075c610fef565b61076584611006565b6040518363ffffffff1660e01b8152600401610782929190611973565b6000604051808303816000875af11580156107a1573d6000803e3d6000fd5b505050506040513d6000823e601f3d908101601f191682016040526107c9919081019061198c565b506107d48787610d6b565b856040516107e291906118df565b604051908190038120906001600160a01b038916907f3ebde5ac38fe999240e3fe670264841c3cbc10e716b57b455cc5c8278eaf04c590600090a350505050505050565b61040b3361102f565b6001600160a01b0381166000908152600160209081526040808320805482518185028101850190935280835260609492939192909184015b8282101561091357838290600052602060002001805461088690611a7b565b80601f01602080910402602001604051908101604052809291908181526020018280546108b290611a7b565b80156108ff5780601f106108d4576101008083540402835291602001916108ff565b820191906000526020600020905b8154815290600101906020018083116108e257829003601f168201915b505050505081526020019060010190610867565b505050509050919050565b428265ffffffffffff161161097f5760405162461bcd60e51b815260206004820152602160248201527f556e6c6f636b2074696d65206d75737420626520696e207468652066757475726044820152606560f81b60648201526084016103f8565b33600090815260026020526040808220905161099c9086906118df565b908152604051908190036020019020805490915065ffffffffffff16600003610a0057805465ffffffffffff19164265ffffffffffff161781553360009081526001602081815260408320805492830181558352909120016109fe8582611b04565b505b80546bffffffffffff0000000000001916600160301b65ffffffffffff851602178155610a316001820160006112dc565b815160009081905b80831015610b2557848381518110610a5357610a536118fb565b60200260200101516040015160000315610b2557848381518110610a7957610a796118fb565b60200260200101516020015160ff16600014610aa75760405162461bcd60e51b81526004016103f890611bc5565b83600101858481518110610abd57610abd6118fb565b602090810291909101810151825460018181018555600094855293839020825160029092020180549383015160ff16600160a01b026001600160a81b03199094166001600160a01b039092169190911792909217825560400151908201559290920191610a39565b80831015610ca8576000858481518110610b4157610b416118fb565b60200260200101516020015160ff16118015610b7e57506064858481518110610b6c57610b6c6118fb565b60200260200101516020015160ff1611155b610bbf5760405162461bcd60e51b8152602060048201526012602482015271496e76616c69642070657263656e7461676560701b60448201526064016103f8565b848381518110610bd157610bd16118fb565b602002602001015160400151600014610bfc5760405162461bcd60e51b81526004016103f890611bc5565b848381518110610c0e57610c0e6118fb565b60200260200101516020015160ff1682610c289190611c09565b915083600101858481518110610c4057610c406118fb565b602090810291909101810151825460018181018555600094855293839020825160029092020180549383015160ff16600160a01b026001600160a81b03199094166001600160a01b039092169190911792909217825560400151908201559290920191610b25565b811580610cb55750816064145b610d0b5760405162461bcd60e51b815260206004820152602160248201527f546f74616c2070657263656e74616765206d7573742062652030206f722031306044820152600360fc1b60648201526084016103f8565b86604051610d1991906118df565b6040518091039020336001600160a01b03167f6c08e189cf4e9160337c9ca88535c6fe928e7479858360da00f053fb076f4af886604051610d5a9190611caa565b60405180910390a350505050505050565b6001600160a01b0382166000908152600160205260408120805490915b81811015610fad57610e3e838281548110610da557610da56118fb565b906000526020600020018054610dba90611a7b565b80601f0160208091040260200160405190810160405280929190818152602001828054610de690611a7b565b8015610e335780601f10610e0857610100808354040283529160200191610e33565b820191906000526020600020905b815481529060010190602001808311610e1657829003601f168201915b505050505085611217565b15610fa55782548390610e5390600190611927565b81548110610e6357610e636118fb565b90600052602060002001838281548110610e7f57610e7f6118fb565b906000526020600020019081610e959190611cbd565b5082805480610ea657610ea6611d91565b600190038181906000526020600020016000610ec29190611300565b90556001600160a01b038516600090815260026020526040908190209051610eeb9086906118df565b90815260405190819003602001902080546bffffffffffffffffffffffff191681556000610f1c60018301826112dc565b505083604051610f2c91906118df565b604080519182900382206001600160a01b038816600081815260026020529290922090927f6c08e189cf4e9160337c9ca88535c6fe928e7479858360da00f053fb076f4af89190610f7e9089906118df565b908152604051908190036020018120610f9691611caa565b60405180910390a35050505050565b600101610d88565b5060405162461bcd60e51b815260206004820152601060248201526f109858dadd5c081b9bdd08199bdd5b9960821b60448201526064016103f8565b50505050565b6000611001600160f81b828080611271565b905090565b6060816040516020016110199190611da7565b6040516020818303038152906040529050919050565b6001600160a01b0381166000908152600160205260408120805490915b81811015610fe9576000836110618385611927565b81548110611071576110716118fb565b90600052602060002001805461108690611a7b565b80601f01602080910402602001604051908101604052809291908181526020018280546110b290611a7b565b80156110ff5780601f106110d4576101008083540402835291602001916110ff565b820191906000526020600020905b8154815290600101906020018083116110e257829003601f168201915b505050505090508380548061111657611116611d91565b6001900381819060005260206000200160006111329190611300565b90556001600160a01b03851660009081526002602052604090819020905161115b9083906118df565b90815260405190819003602001902080546bffffffffffffffffffffffff19168155600061118c60018301826112dc565b50508060405161119c91906118df565b604080519182900382206001600160a01b038816600081815260026020529290922090927f6c08e189cf4e9160337c9ca88535c6fe928e7479858360da00f053fb076f4af891906111ee9086906118df565b90815260405190819003602001812061120691611caa565b60405180910390a35060010161104c565b60008160405160200161122a91906118df565b604051602081830303815290604052805190602001208360405160200161125191906118df565b604051602081830303815290604052805190602001201490505b92915050565b604080516001600160f81b03198087166020830152851660218201526000602282018190526001600160e01b03198516602683015269ffffffffffffffffffff198416602a83015291016040516020818303038152906040526112d390611e2a565b95945050505050565b50805460008255600202906000526020600020908101906112fd919061133a565b50565b50805461130c90611a7b565b6000825580601f1061131c575050565b601f0160209004906000526020600020908101906112fd9190611364565b5b808211156113605780546001600160a81b03191681556000600182015560020161133b565b5090565b5b808211156113605760008155600101611365565b60005b8381101561139457818101518382015260200161137c565b50506000910152565b600081518084526113b5816020860160208601611379565b601f01601f19169290920160200192915050565b6020815260006113dc602083018461139d565b9392505050565b80356001600160a01b03811681146113fa57600080fd5b919050565b60008083601f84011261141157600080fd5b5081356001600160401b0381111561142857600080fd5b60208301915083602082850101111561144057600080fd5b9250929050565b60008060006040848603121561145c57600080fd5b611465846113e3565b925060208401356001600160401b0381111561148057600080fd5b61148c868287016113ff565b9497909650939450505050565b6020815260006080820165ffffffffffff845116602084015265ffffffffffff6020850151166040840152604084015160608085015281815180845260a086019150602083019350600092505b8083101561152b57835160018060a01b03815116835260ff602082015116602084015260408101516040840152506060820191506020840193506001830192506114e6565b5095945050505050565b60006020828403121561154757600080fd5b5035919050565b634e487b7160e01b600052604160045260246000fd5b604051606081016001600160401b03811182821017156115865761158661154e565b60405290565b604051601f8201601f191681016001600160401b03811182821017156115b4576115b461154e565b604052919050565b60006001600160401b038211156115d5576115d561154e565b50601f01601f191660200190565b600082601f8301126115f457600080fd5b8135611607611602826115bc565b61158c565b81815284602083860101111561161c57600080fd5b816020850160208301376000918101602001919091529392505050565b60006020828403121561164b57600080fd5b81356001600160401b0381111561166157600080fd5b61166d848285016115e3565b949350505050565b6000806020838503121561168857600080fd5b82356001600160401b0381111561169e57600080fd5b6116aa858286016113ff565b90969095509350505050565b600080604083850312156116c957600080fd5b6116d2836113e3565b915060208301356001600160401b038111156116ed57600080fd5b6116f9858286016115e3565b9150509250929050565b60006020828403121561171557600080fd5b6113dc826113e3565b6000602082016020835280845180835260408501915060408160051b86010192506020860160005b8281101561177757603f1987860301845261176285835161139d565b94506020938401939190910190600101611746565b50929695505050505050565b60006001600160401b0382111561179c5761179c61154e565b5060051b60200190565b6000806000606084860312156117bb57600080fd5b83356001600160401b038111156117d157600080fd5b6117dd868287016115e3565b935050602084013565ffffffffffff811681146117f957600080fd5b915060408401356001600160401b0381111561181457600080fd5b8401601f8101861361182557600080fd5b803561183361160282611783565b8082825260208201915060206060840285010192508883111561185557600080fd5b6020840193505b828410156118c1576060848a03121561187457600080fd5b61187c611564565b611885856113e3565b8152602085013560ff8116811461189b57600080fd5b60208281019190915260408681013590830152908352606090940193919091019061185c565b809450505050509250925092565b8183823760009101908152919050565b600082516118f1818460208701611379565b9190910192915050565b634e487b7160e01b600052603260045260246000fd5b634e487b7160e01b600052601160045260246000fd5b8181038181111561126b5761126b611911565b808202811582820484141761126b5761126b611911565b60008261196e57634e487b7160e01b600052601260045260246000fd5b500490565b82815260406020820152600061166d604083018461139d565b60006020828403121561199e57600080fd5b81516001600160401b038111156119b457600080fd5b8201601f810184136119c557600080fd5b80516119d361160282611783565b8082825260208201915060208360051b8501019250868311156119f557600080fd5b602084015b83811015611a705780516001600160401b03811115611a1857600080fd5b8501603f81018913611a2957600080fd5b6020810151611a3a611602826115bc565b8181526040838301018b1015611a4f57600080fd5b611a60826020830160408601611379565b85525050602092830192016119fa565b509695505050505050565b600181811c90821680611a8f57607f821691505b602082108103611aaf57634e487b7160e01b600052602260045260246000fd5b50919050565b601f821115611aff57806000526020600020601f840160051c81016020851015611adc5750805b601f840160051c820191505b81811015611afc5760008155600101611ae8565b50505b505050565b81516001600160401b03811115611b1d57611b1d61154e565b611b3181611b2b8454611a7b565b84611ab5565b6020601f821160018114611b685760008315611b4d5750848201515b600184901b600019600386901b1c198216175b855550611afc565b600084815260208120601f198516915b82811015611b985787850151825560209485019460019092019101611b78565b5084821015611bb65786840151600019600387901b60f8161c191681555b50505050600190811b01905550565b60208082526024908201527f426f746820616d6f756e7420616e642070657263656e7461676520617265206e60408201526306f7420360e41b606082015260800190565b8082018082111561126b5761126b611911565b600060608301825465ffffffffffff8116855265ffffffffffff8160301c1660208601525060018301606060408601528181548084526080870191508260005260206000209350600092505b8083101561152b5783546001600160a01b038116835260a01c60ff16602083015260018085015460408401526002909401939290920191606090910190611c68565b6020815260006113dc6020830184611c1c565b818103611cc8575050565b611cd28254611a7b565b6001600160401b03811115611ce957611ce961154e565b611cf781611b2b8454611a7b565b6000601f821160018114611d295760008315611b4d575081850154600184901b600019600386901b1c19821617611b60565b600085815260209020601f19841690600086815260209020845b83811015611d635782860154825560019586019590910190602001611d43565b5085831015611d815781850154600019600388901b60f8161c191681555b5050505050600190811b01905550565b634e487b7160e01b600052603160045260246000fd5b6000602082016020835280845180835260408501915060408160051b86010192506020860160005b8281101561177757868503603f19018452815180516001600160a01b0316865260208082015190870152604090810151606091870182905290611e149087018261139d565b9550506020938401939190910190600101611dcf565b80516020808301519190811015611aaf5760001960209190910360031b1b1691905056fea26469706673582212201496e68ccb3cf213f24213f04e5a1f5f6d4b291c7b6c5c4cba8c7ce7f46e11df64736f6c634300081a0033",
    "linkReferences": {}
  },
  "methodIdentifiers": {
    "executeBackup(address,string)": "7784d4b5",
    "getBackup(address,string)": "1160fbf0",
    "getBackups(address)": "98f46cea",
    "isInitialized(address)": "d60b347f",
    "isModuleType(uint256)": "ecd05961",
    "name()": "06fdde03",
    "onInstall(bytes)": "6d61fe70",
    "onUninstall(bytes)": "8a91b0e3",
    "removeBackup(string)": "39178b83",
    "updateBackup(string,uint48,(address,uint8,uint256)[])": "98fbc9c9",
    "users(uint256)": "365b98b2",
    "version()": "54fd4d50"
  },
  "id": 229
}